{
  "contractName": "StarNotary",
  "abi": [
    {
      "constant": true,
      "inputs": [
        {
          "name": "interfaceId",
          "type": "bytes4"
        }
      ],
      "name": "supportsInterface",
      "outputs": [
        {
          "name": "",
          "type": "bool"
        }
      ],
      "payable": false,
      "stateMutability": "view",
      "type": "function"
    },
    {
      "constant": true,
      "inputs": [
        {
          "name": "",
          "type": "uint256"
        }
      ],
      "name": "starsForSale",
      "outputs": [
        {
          "name": "",
          "type": "uint256"
        }
      ],
      "payable": false,
      "stateMutability": "view",
      "type": "function"
    },
    {
      "constant": true,
      "inputs": [
        {
          "name": "tokenId",
          "type": "uint256"
        }
      ],
      "name": "getApproved",
      "outputs": [
        {
          "name": "",
          "type": "address"
        }
      ],
      "payable": false,
      "stateMutability": "view",
      "type": "function"
    },
    {
      "constant": false,
      "inputs": [
        {
          "name": "to",
          "type": "address"
        },
        {
          "name": "tokenId",
          "type": "uint256"
        }
      ],
      "name": "approve",
      "outputs": [],
      "payable": false,
      "stateMutability": "nonpayable",
      "type": "function"
    },
    {
      "constant": false,
      "inputs": [
        {
          "name": "from",
          "type": "address"
        },
        {
          "name": "to",
          "type": "address"
        },
        {
          "name": "tokenId",
          "type": "uint256"
        }
      ],
      "name": "transferFrom",
      "outputs": [],
      "payable": false,
      "stateMutability": "nonpayable",
      "type": "function"
    },
    {
      "constant": false,
      "inputs": [
        {
          "name": "from",
          "type": "address"
        },
        {
          "name": "to",
          "type": "address"
        },
        {
          "name": "tokenId",
          "type": "uint256"
        }
      ],
      "name": "safeTransferFrom",
      "outputs": [],
      "payable": false,
      "stateMutability": "nonpayable",
      "type": "function"
    },
    {
      "constant": true,
      "inputs": [
        {
          "name": "tokenId",
          "type": "uint256"
        }
      ],
      "name": "ownerOf",
      "outputs": [
        {
          "name": "",
          "type": "address"
        }
      ],
      "payable": false,
      "stateMutability": "view",
      "type": "function"
    },
    {
      "constant": true,
      "inputs": [
        {
          "name": "owner",
          "type": "address"
        }
      ],
      "name": "balanceOf",
      "outputs": [
        {
          "name": "",
          "type": "uint256"
        }
      ],
      "payable": false,
      "stateMutability": "view",
      "type": "function"
    },
    {
      "constant": false,
      "inputs": [
        {
          "name": "to",
          "type": "address"
        },
        {
          "name": "approved",
          "type": "bool"
        }
      ],
      "name": "setApprovalForAll",
      "outputs": [],
      "payable": false,
      "stateMutability": "nonpayable",
      "type": "function"
    },
    {
      "constant": false,
      "inputs": [
        {
          "name": "from",
          "type": "address"
        },
        {
          "name": "to",
          "type": "address"
        },
        {
          "name": "tokenId",
          "type": "uint256"
        },
        {
          "name": "_data",
          "type": "bytes"
        }
      ],
      "name": "safeTransferFrom",
      "outputs": [],
      "payable": false,
      "stateMutability": "nonpayable",
      "type": "function"
    },
    {
      "constant": true,
      "inputs": [
        {
          "name": "owner",
          "type": "address"
        },
        {
          "name": "operator",
          "type": "address"
        }
      ],
      "name": "isApprovedForAll",
      "outputs": [
        {
          "name": "",
          "type": "bool"
        }
      ],
      "payable": false,
      "stateMutability": "view",
      "type": "function"
    },
    {
      "anonymous": false,
      "inputs": [
        {
          "indexed": true,
          "name": "from",
          "type": "address"
        },
        {
          "indexed": true,
          "name": "to",
          "type": "address"
        },
        {
          "indexed": true,
          "name": "tokenId",
          "type": "uint256"
        }
      ],
      "name": "Transfer",
      "type": "event"
    },
    {
      "anonymous": false,
      "inputs": [
        {
          "indexed": true,
          "name": "owner",
          "type": "address"
        },
        {
          "indexed": true,
          "name": "approved",
          "type": "address"
        },
        {
          "indexed": true,
          "name": "tokenId",
          "type": "uint256"
        }
      ],
      "name": "Approval",
      "type": "event"
    },
    {
      "anonymous": false,
      "inputs": [
        {
          "indexed": true,
          "name": "owner",
          "type": "address"
        },
        {
          "indexed": true,
          "name": "operator",
          "type": "address"
        },
        {
          "indexed": false,
          "name": "approved",
          "type": "bool"
        }
      ],
      "name": "ApprovalForAll",
      "type": "event"
    },
    {
      "constant": false,
      "inputs": [
        {
          "name": "_name",
          "type": "string"
        },
        {
          "name": "_starStory",
          "type": "string"
        },
        {
          "name": "_dec",
          "type": "string"
        },
        {
          "name": "_mag",
          "type": "string"
        },
        {
          "name": "_cent",
          "type": "string"
        },
        {
          "name": "_tokenId",
          "type": "uint256"
        }
      ],
      "name": "createStar",
      "outputs": [],
      "payable": false,
      "stateMutability": "nonpayable",
      "type": "function"
    },
    {
      "constant": false,
      "inputs": [
        {
          "name": "_tokenId",
          "type": "uint256"
        },
        {
          "name": "_price",
          "type": "uint256"
        }
      ],
      "name": "putStarUpForSale",
      "outputs": [],
      "payable": false,
      "stateMutability": "nonpayable",
      "type": "function"
    },
    {
      "constant": false,
      "inputs": [
        {
          "name": "_tokenId",
          "type": "uint256"
        }
      ],
      "name": "buyStar",
      "outputs": [],
      "payable": true,
      "stateMutability": "payable",
      "type": "function"
    },
    {
      "constant": true,
      "inputs": [
        {
          "name": "_dec",
          "type": "string"
        },
        {
          "name": "_mag",
          "type": "string"
        },
        {
          "name": "_cent",
          "type": "string"
        }
      ],
      "name": "checkIfStarExist",
      "outputs": [
        {
          "name": "",
          "type": "bool"
        }
      ],
      "payable": false,
      "stateMutability": "view",
      "type": "function"
    },
    {
      "constant": false,
      "inputs": [
        {
          "name": "_tokenId",
          "type": "uint256"
        }
      ],
      "name": "mint",
      "outputs": [],
      "payable": false,
      "stateMutability": "nonpayable",
      "type": "function"
    },
    {
      "constant": true,
      "inputs": [
        {
          "name": "_tokenId",
          "type": "uint256"
        }
      ],
      "name": "tokenIdToStarInfo",
      "outputs": [
        {
          "name": "",
          "type": "string"
        },
        {
          "name": "",
          "type": "string"
        },
        {
          "name": "",
          "type": "string"
        },
        {
          "name": "",
          "type": "string"
        },
        {
          "name": "",
          "type": "string"
        }
      ],
      "payable": false,
      "stateMutability": "view",
      "type": "function"
    }
  ],
  "bytecode": "0x6080604052620000416301ffc9a77c01000000000000000000000000000000000000000000000000000000000262000084640100000000026401000000009004565b6200007e6380ac58cd7c01000000000000000000000000000000000000000000000000000000000262000084640100000000026401000000009004565b62000142565b63ffffffff7c010000000000000000000000000000000000000000000000000000000002817bffffffffffffffffffffffffffffffffffffffffffffffffffffffff191614151515620000d657600080fd5b6001600080837bffffffffffffffffffffffffffffffffffffffffffffffffffffffff19167bffffffffffffffffffffffffffffffffffffffffffffffffffffffff1916815260200190815260200160002060006101000a81548160ff02191690831515021790555050565b61298880620001526000396000f3006080604052600436106100f1576000357c0100000000000000000000000000000000000000000000000000000000900463ffffffff16806301ffc9a7146100f65780630384153d1461015a5780630564b13014610267578063081812fc146102a8578063095ea7b3146103155780631967fd981461036257806323b872dd146105b85780632f1c34ef14610625578063316a43611461064557806342842e0e1461067c5780636352211e146106e957806370a0823114610756578063a0712d68146107ad578063a22cb465146107da578063b250ced014610829578063b88d4fde146109b4578063e985e9c514610a67575b600080fd5b34801561010257600080fd5b5061014060048036038101908080357bffffffffffffffffffffffffffffffffffffffffffffffffffffffff19169060200190929190505050610ae2565b604051808215151515815260200191505060405180910390f35b34801561016657600080fd5b5061024d600480360381019080803590602001908201803590602001908080601f0160208091040260200160405190810160405280939291908181526020018383808284378201915050505050509192919290803590602001908201803590602001908080601f0160208091040260200160405190810160405280939291908181526020018383808284378201915050505050509192919290803590602001908201803590602001908080601f0160208091040260200160405190810160405280939291908181526020018383808284378201915050505050509192919290505050610b49565b604051808215151515815260200191505060405180910390f35b34801561027357600080fd5b5061029260048036038101908080359060200190929190505050610e4c565b6040518082815260200191505060405180910390f35b3480156102b457600080fd5b506102d360048036038101908080359060200190929190505050610e64565b604051808273ffffffffffffffffffffffffffffffffffffffff1673ffffffffffffffffffffffffffffffffffffffff16815260200191505060405180910390f35b34801561032157600080fd5b50610360600480360381019080803573ffffffffffffffffffffffffffffffffffffffff16906020019092919080359060200190929190505050610eb5565b005b34801561036e57600080fd5b5061038d60048036038101908080359060200190929190505050610ffa565b60405180806020018060200180602001806020018060200186810386528b818151815260200191508051906020019080838360005b838110156103dd5780820151818401526020810190506103c2565b50505050905090810190601f16801561040a5780820380516001836020036101000a031916815260200191505b5086810385528a818151815260200191508051906020019080838360005b83811015610443578082015181840152602081019050610428565b50505050905090810190601f1680156104705780820380516001836020036101000a031916815260200191505b50868103845289818151815260200191508051906020019080838360005b838110156104a957808201518184015260208101905061048e565b50505050905090810190601f1680156104d65780820380516001836020036101000a031916815260200191505b50868103835288818151815260200191508051906020019080838360005b8381101561050f5780820151818401526020810190506104f4565b50505050905090810190601f16801561053c5780820380516001836020036101000a031916815260200191505b50868103825287818151815260200191508051906020019080838360005b8381101561057557808201518184015260208101905061055a565b50505050905090810190601f1680156105a25780820380516001836020036101000a031916815260200191505b509a505050505050505050505060405180910390f35b3480156105c457600080fd5b50610623600480360381019080803573ffffffffffffffffffffffffffffffffffffffff169060200190929190803573ffffffffffffffffffffffffffffffffffffffff169060200190929190803590602001909291905050506113b2565b005b61064360048036038101908080359060200190929190505050611481565b005b34801561065157600080fd5b5061067a6004803603810190808035906020019092919080359060200190929190505050611721565b005b34801561068857600080fd5b506106e7600480360381019080803573ffffffffffffffffffffffffffffffffffffffff169060200190929190803573ffffffffffffffffffffffffffffffffffffffff169060200190929190803590602001909291905050506118af565b005b3480156106f557600080fd5b50610714600480360381019080803590602001909291905050506118d0565b604051808273ffffffffffffffffffffffffffffffffffffffff1673ffffffffffffffffffffffffffffffffffffffff16815260200191505060405180910390f35b34801561076257600080fd5b50610797600480360381019080803573ffffffffffffffffffffffffffffffffffffffff16906020019092919050505061194e565b6040518082815260200191505060405180910390f35b3480156107b957600080fd5b506107d8600480360381019080803590602001909291905050506119d2565b005b3480156107e657600080fd5b50610827600480360381019080803573ffffffffffffffffffffffffffffffffffffffff1690602001909291908035151590602001909291905050506119df565b005b34801561083557600080fd5b506109b2600480360381019080803590602001908201803590602001908080601f0160208091040260200160405190810160405280939291908181526020018383808284378201915050505050509192919290803590602001908201803590602001908080601f0160208091040260200160405190810160405280939291908181526020018383808284378201915050505050509192919290803590602001908201803590602001908080601f0160208091040260200160405190810160405280939291908181526020018383808284378201915050505050509192919290803590602001908201803590602001908080601f0160208091040260200160405190810160405280939291908181526020018383808284378201915050505050509192919290803590602001908201803590602001908080601f016020809104026020016040519081016040528093929190818152602001838380828437820191505050505050919291929080359060200190929190505050611b1b565b005b3480156109c057600080fd5b50610a65600480360381019080803573ffffffffffffffffffffffffffffffffffffffff169060200190929190803573ffffffffffffffffffffffffffffffffffffffff16906020019092919080359060200190929190803590602001908201803590602001908080601f0160208091040260200160405190810160405280939291908181526020018383808284378201915050505050509192919290505050611fdf565b005b348015610a7357600080fd5b50610ac8600480360381019080803573ffffffffffffffffffffffffffffffffffffffff169060200190929190803573ffffffffffffffffffffffffffffffffffffffff169060200190929190505050612007565b604051808215151515815260200191505060405180910390f35b6000806000837bffffffffffffffffffffffffffffffffffffffffffffffffffffffff19167bffffffffffffffffffffffffffffffffffffffffffffffffffffffff1916815260200190815260200160002060009054906101000a900460ff169050919050565b600060076000856040516020018082805190602001908083835b602083101515610b885780518252602082019150602081019050602083039250610b63565b6001836020036101000a0380198251168184511680821785525050505050509050019150506040516020818303038152906040526040518082805190602001908083835b602083101515610bf15780518252602082019150602081019050602083039250610bcc565b6001836020036101000a03801982511681845116808217855250505050505090500191505060405180910390206000191660001916815260200190815260200160002060009054906101000a900460ff16158015610d43575060086000846040516020018082805190602001908083835b602083101515610c875780518252602082019150602081019050602083039250610c62565b6001836020036101000a0380198251168184511680821785525050505050509050019150506040516020818303038152906040526040518082805190602001908083835b602083101515610cf05780518252602082019150602081019050602083039250610ccb565b6001836020036101000a03801982511681845116808217855250505050505090500191505060405180910390206000191660001916815260200190815260200160002060009054906101000a900460ff16155b8015610e43575060096000836040516020018082805190602001908083835b602083101515610d875780518252602082019150602081019050602083039250610d62565b6001836020036101000a0380198251168184511680821785525050505050509050019150506040516020818303038152906040526040518082805190602001908083835b602083101515610df05780518252602082019150602081019050602083039250610dcb565b6001836020036101000a03801982511681845116808217855250505050505090500191505060405180910390206000191660001916815260200190815260200160002060009054906101000a900460ff16155b90509392505050565b60066020528060005260406000206000915090505481565b6000610e6f8261209b565b1515610e7a57600080fd5b6002600083815260200190815260200160002060009054906101000a900473ffffffffffffffffffffffffffffffffffffffff169050919050565b6000610ec0826118d0565b90508073ffffffffffffffffffffffffffffffffffffffff168373ffffffffffffffffffffffffffffffffffffffff1614151515610efd57600080fd5b8073ffffffffffffffffffffffffffffffffffffffff163373ffffffffffffffffffffffffffffffffffffffff161480610f3d5750610f3c8133612007565b5b1515610f4857600080fd5b826002600084815260200190815260200160002060006101000a81548173ffffffffffffffffffffffffffffffffffffffff021916908373ffffffffffffffffffffffffffffffffffffffff160217905550818373ffffffffffffffffffffffffffffffffffffffff168273ffffffffffffffffffffffffffffffffffffffff167f8c5be1e5ebec7d5bd14f71427d1e84f3dd0314c0f7b2291e5b200ac8c7c3b92560405160405180910390a4505050565b606080606080606061100a61284b565b6005600088815260200190815260200160002060606040519081016040529081600082018054600181600116156101000203166002900480601f0160208091040260200160405190810160405280929190818152602001828054600181600116156101000203166002900480156110c25780601f10611097576101008083540402835291602001916110c2565b820191906000526020600020905b8154815290600101906020018083116110a557829003601f168201915b505050505081526020016001820160606040519081016040529081600082018054600181600116156101000203166002900480601f0160208091040260200160405190810160405280929190818152602001828054600181600116156101000203166002900480156111755780601f1061114a57610100808354040283529160200191611175565b820191906000526020600020905b81548152906001019060200180831161115857829003601f168201915b50505050508152602001600182018054600181600116156101000203166002900480601f0160208091040260200160405190810160405280929190818152602001828054600181600116156101000203166002900480156112175780601f106111ec57610100808354040283529160200191611217565b820191906000526020600020905b8154815290600101906020018083116111fa57829003601f168201915b50505050508152602001600282018054600181600116156101000203166002900480601f0160208091040260200160405190810160405280929190818152602001828054600181600116156101000203166002900480156112b95780601f1061128e576101008083540402835291602001916112b9565b820191906000526020600020905b81548152906001019060200180831161129c57829003601f168201915b5050505050815250508152602001600482018054600181600116156101000203166002900480601f01602080910402602001604051908101604052809291908181526020018280546001816001161561010002031660029004801561135f5780601f106113345761010080835404028352916020019161135f565b820191906000526020600020905b81548152906001019060200180831161134257829003601f168201915b505050505081525050905080600001518160400151826020015160000151836020015160200151846020015160400151849450839350829250819150809050955095509550955095505091939590929450565b6113bc338261210d565b15156113c757600080fd5b600073ffffffffffffffffffffffffffffffffffffffff168273ffffffffffffffffffffffffffffffffffffffff161415151561140357600080fd5b61140d83826121a2565b61141783826122a5565b61142182826123d4565b808273ffffffffffffffffffffffffffffffffffffffff168473ffffffffffffffffffffffffffffffffffffffff167fddf252ad1be2c89b69c2b068fc378daa952ba7f163c4a11628f55a4df523b3ef60405160405180910390a4505050565b6000806000600660008581526020019081526020016000205411151561150f576040517f08c379a00000000000000000000000000000000000000000000000000000000081526004018080602001828103825260198152602001807f546869732073746172206973206e6f7420666f722073616c650000000000000081525060200191505060405180910390fd5b600660008481526020019081526020016000205491503073ffffffffffffffffffffffffffffffffffffffff16636352211e846040518263ffffffff167c010000000000000000000000000000000000000000000000000000000002815260040180828152602001915050602060405180830381600087803b15801561159457600080fd5b505af11580156115a8573d6000803e3d6000fd5b505050506040513d60208110156115be57600080fd5b8101908080519060200190929190505050905081341015151561166f576040517f08c379a00000000000000000000000000000000000000000000000000000000081526004018080602001828103825260288152602001807f506c6561736520616464206d6f72652062616c616e636520746f20627579207481526020017f686973207374617200000000000000000000000000000000000000000000000081525060400191505060405180910390fd5b61167981846122a5565b61168333846123d4565b8073ffffffffffffffffffffffffffffffffffffffff166108fc839081150290604051600060405180830381858888f193505050501580156116c9573d6000803e3d6000fd5b508134111561171c573373ffffffffffffffffffffffffffffffffffffffff166108fc8334039081150290604051600060405180830381858888f1935050505015801561171a573d6000803e3d6000fd5b505b505050565b3373ffffffffffffffffffffffffffffffffffffffff163073ffffffffffffffffffffffffffffffffffffffff16636352211e846040518263ffffffff167c010000000000000000000000000000000000000000000000000000000002815260040180828152602001915050602060405180830381600087803b1580156117a757600080fd5b505af11580156117bb573d6000803e3d6000fd5b505050506040513d60208110156117d157600080fd5b810190808051906020019092919050505073ffffffffffffffffffffffffffffffffffffffff16141515611893576040517f08c379a00000000000000000000000000000000000000000000000000000000081526004018080602001828103825260278152602001807f546869732055736572206973206e6f7420746865206f776e6572206f6620746881526020017f697320737461720000000000000000000000000000000000000000000000000081525060400191505060405180910390fd5b8060066000848152602001908152602001600020819055505050565b6118cb8383836020604051908101604052806000815250611fdf565b505050565b6000806001600084815260200190815260200160002060009054906101000a900473ffffffffffffffffffffffffffffffffffffffff169050600073ffffffffffffffffffffffffffffffffffffffff168173ffffffffffffffffffffffffffffffffffffffff161415151561194557600080fd5b80915050919050565b60008073ffffffffffffffffffffffffffffffffffffffff168273ffffffffffffffffffffffffffffffffffffffff161415151561198b57600080fd5b600360008373ffffffffffffffffffffffffffffffffffffffff1673ffffffffffffffffffffffffffffffffffffffff168152602001908152602001600020549050919050565b6119dc338261252e565b50565b3373ffffffffffffffffffffffffffffffffffffffff168273ffffffffffffffffffffffffffffffffffffffff1614151515611a1a57600080fd5b80600460003373ffffffffffffffffffffffffffffffffffffffff1673ffffffffffffffffffffffffffffffffffffffff16815260200190815260200160002060008473ffffffffffffffffffffffffffffffffffffffff1673ffffffffffffffffffffffffffffffffffffffff16815260200190815260200160002060006101000a81548160ff0219169083151502179055508173ffffffffffffffffffffffffffffffffffffffff163373ffffffffffffffffffffffffffffffffffffffff167f17307eab39ab6107e8899845ad3d59bd9653f200f220920489ca2b5937696c3183604051808215151515815260200191505060405180910390a35050565b611b23612873565b611b2b61284b565b60011515611b3a878787610b49565b1515141515611bd7576040517f08c379a00000000000000000000000000000000000000000000000000000000081526004018080602001828103825260378152602001807f54686973205374617220616c7265616479206578697374732c20506c6561736581526020017f206368616e67652074686520636f6f7264696e6174657300000000000000000081525060400191505060405180910390fd5b600160076000886040516020018082805190602001908083835b602083101515611c165780518252602082019150602081019050602083039250611bf1565b6001836020036101000a0380198251168184511680821785525050505050509050019150506040516020818303038152906040526040518082805190602001908083835b602083101515611c7f5780518252602082019150602081019050602083039250611c5a565b6001836020036101000a03801982511681845116808217855250505050505090500191505060405180910390206000191660001916815260200190815260200160002060006101000a81548160ff021916908315150217905550600160086000876040516020018082805190602001908083835b602083101515611d185780518252602082019150602081019050602083039250611cf3565b6001836020036101000a0380198251168184511680821785525050505050509050019150506040516020818303038152906040526040518082805190602001908083835b602083101515611d815780518252602082019150602081019050602083039250611d5c565b6001836020036101000a03801982511681845116808217855250505050505090500191505060405180910390206000191660001916815260200190815260200160002060006101000a81548160ff021916908315150217905550600160096000866040516020018082805190602001908083835b602083101515611e1a5780518252602082019150602081019050602083039250611df5565b6001836020036101000a0380198251168184511680821785525050505050509050019150506040516020818303038152906040526040518082805190602001908083835b602083101515611e835780518252602082019150602081019050602083039250611e5e565b6001836020036101000a03801982511681845116808217855250505050505090500191505060405180910390206000191660001916815260200190815260200160002060006101000a81548160ff02191690831515021790555060606040519081016040528087815260200186815260200185815250915060606040519081016040528089815260200183815260200188815250905080600560008581526020019081526020016000206000820151816000019080519060200190611f49929190612895565b506020820151816001016000820151816000019080519060200190611f6f929190612895565b506020820151816001019080519060200190611f8c929190612895565b506040820151816002019080519060200190611fa9929190612895565b5050506040820151816004019080519060200190611fc8929190612895565b50905050611fd5836119d2565b5050505050505050565b611fea8484846113b2565b611ff6848484846125d4565b151561200157600080fd5b50505050565b6000600460008473ffffffffffffffffffffffffffffffffffffffff1673ffffffffffffffffffffffffffffffffffffffff16815260200190815260200160002060008373ffffffffffffffffffffffffffffffffffffffff1673ffffffffffffffffffffffffffffffffffffffff16815260200190815260200160002060009054906101000a900460ff16905092915050565b6000806001600084815260200190815260200160002060009054906101000a900473ffffffffffffffffffffffffffffffffffffffff169050600073ffffffffffffffffffffffffffffffffffffffff168173ffffffffffffffffffffffffffffffffffffffff161415915050919050565b600080612119836118d0565b90508073ffffffffffffffffffffffffffffffffffffffff168473ffffffffffffffffffffffffffffffffffffffff16148061218857508373ffffffffffffffffffffffffffffffffffffffff1661217084610e64565b73ffffffffffffffffffffffffffffffffffffffff16145b8061219957506121988185612007565b5b91505092915050565b8173ffffffffffffffffffffffffffffffffffffffff166121c2826118d0565b73ffffffffffffffffffffffffffffffffffffffff161415156121e457600080fd5b600073ffffffffffffffffffffffffffffffffffffffff166002600083815260200190815260200160002060009054906101000a900473ffffffffffffffffffffffffffffffffffffffff1673ffffffffffffffffffffffffffffffffffffffff161415156122a15760006002600083815260200190815260200160002060006101000a81548173ffffffffffffffffffffffffffffffffffffffff021916908373ffffffffffffffffffffffffffffffffffffffff1602179055505b5050565b8173ffffffffffffffffffffffffffffffffffffffff166122c5826118d0565b73ffffffffffffffffffffffffffffffffffffffff161415156122e757600080fd5b61233a6001600360008573ffffffffffffffffffffffffffffffffffffffff1673ffffffffffffffffffffffffffffffffffffffff168152602001908152602001600020546127f690919063ffffffff16565b600360008473ffffffffffffffffffffffffffffffffffffffff1673ffffffffffffffffffffffffffffffffffffffff1681526020019081526020016000208190555060006001600083815260200190815260200160002060006101000a81548173ffffffffffffffffffffffffffffffffffffffff021916908373ffffffffffffffffffffffffffffffffffffffff1602179055505050565b600073ffffffffffffffffffffffffffffffffffffffff166001600083815260200190815260200160002060009054906101000a900473ffffffffffffffffffffffffffffffffffffffff1673ffffffffffffffffffffffffffffffffffffffff1614151561244257600080fd5b816001600083815260200190815260200160002060006101000a81548173ffffffffffffffffffffffffffffffffffffffff021916908373ffffffffffffffffffffffffffffffffffffffff1602179055506124e76001600360008573ffffffffffffffffffffffffffffffffffffffff1673ffffffffffffffffffffffffffffffffffffffff1681526020019081526020016000205461281790919063ffffffff16565b600360008473ffffffffffffffffffffffffffffffffffffffff1673ffffffffffffffffffffffffffffffffffffffff168152602001908152602001600020819055505050565b600073ffffffffffffffffffffffffffffffffffffffff168273ffffffffffffffffffffffffffffffffffffffff161415151561256a57600080fd5b61257482826123d4565b808273ffffffffffffffffffffffffffffffffffffffff16600073ffffffffffffffffffffffffffffffffffffffff167fddf252ad1be2c89b69c2b068fc378daa952ba7f163c4a11628f55a4df523b3ef60405160405180910390a45050565b6000806125f68573ffffffffffffffffffffffffffffffffffffffff16612838565b151561260557600191506127ed565b8473ffffffffffffffffffffffffffffffffffffffff1663150b7a02338887876040518563ffffffff167c0100000000000000000000000000000000000000000000000000000000028152600401808573ffffffffffffffffffffffffffffffffffffffff1673ffffffffffffffffffffffffffffffffffffffff1681526020018473ffffffffffffffffffffffffffffffffffffffff1673ffffffffffffffffffffffffffffffffffffffff16815260200183815260200180602001828103825283818151815260200191508051906020019080838360005b838110156126fa5780820151818401526020810190506126df565b50505050905090810190601f1680156127275780820380516001836020036101000a031916815260200191505b5095505050505050602060405180830381600087803b15801561274957600080fd5b505af115801561275d573d6000803e3d6000fd5b505050506040513d602081101561277357600080fd5b8101908080519060200190929190505050905063150b7a027c0100000000000000000000000000000000000000000000000000000000027bffffffffffffffffffffffffffffffffffffffffffffffffffffffff1916817bffffffffffffffffffffffffffffffffffffffffffffffffffffffff19161491505b50949350505050565b60008083831115151561280857600080fd5b82840390508091505092915050565b600080828401905083811015151561282e57600080fd5b8091505092915050565b600080823b905060008111915050919050565b60a06040519081016040528060608152602001612866612915565b8152602001606081525090565b6060604051908101604052806060815260200160608152602001606081525090565b828054600181600116156101000203166002900490600052602060002090601f016020900481019282601f106128d657805160ff1916838001178555612904565b82800160010185558215612904579182015b828111156129035782518255916020019190600101906128e8565b5b5090506129119190612937565b5090565b6060604051908101604052806060815260200160608152602001606081525090565b61295991905b8082111561295557600081600090555060010161293d565b5090565b905600a165627a7a723058200603181b1d3a6d1da6b8a451312c59c89bb223a1eb41a058c951afb2773ad8ac0029",
  "source": "pragma solidity ^0.4.23;\r\nimport \"openzeppelin-solidity/contracts/token/ERC721/ERC721.sol\";\r\n\r\ncontract StarNotary is ERC721 { \r\n\r\n    struct Coordinates {\r\n        string Dec;\r\n        string Mag;\r\n        string Cent;\r\n    }\r\n\r\n    struct Star { \r\n        string name;\r\n        Coordinates coords;\r\n        string starStory; \r\n    }\r\n\r\n    mapping(uint256 => Star) private _tokenIdToStarInfo;\r\n    mapping(uint256 => uint256) public starsForSale;\r\n\r\n    mapping(bytes32 => bool) private isDecExist;\r\n    mapping(bytes32 => bool) private isMagExist;\r\n    mapping(bytes32 => bool) private isCentExist;\r\n\r\n    function createStar(string _name, string _starStory, string _dec, string _mag, string _cent, uint256 _tokenId) public { \r\n        require(checkIfStarExist(_dec, _mag, _cent) == true, \"This Star already exists, Please change the coordinates\");\r\n        isDecExist[keccak256(abi.encodePacked(_dec))] = true;\r\n        isMagExist[keccak256(abi.encodePacked(_mag))] = true;\r\n        isCentExist[keccak256(abi.encodePacked(_cent))] = true;\r\n\r\n        Coordinates memory newCoords = Coordinates(_dec, _mag, _cent);\r\n        Star memory newStar = Star(_name, newCoords, _starStory);\r\n\r\n        _tokenIdToStarInfo[_tokenId] = newStar;\r\n\r\n        mint(_tokenId);\r\n    }\r\n\r\n    function putStarUpForSale(uint256 _tokenId, uint256 _price) public { \r\n        require(this.ownerOf(_tokenId) == msg.sender, \"This User is not the owner of this star\");\r\n        starsForSale[_tokenId] = _price;\r\n    }\r\n\r\n    function buyStar(uint256 _tokenId) public payable { \r\n        require(starsForSale[_tokenId] > 0, \"This star is not for sale\");\r\n        \r\n        uint256 starCost = starsForSale[_tokenId];\r\n        address starOwner = this.ownerOf(_tokenId);\r\n        require(msg.value >= starCost, \"Please add more balance to buy this star\");\r\n\r\n        _removeTokenFrom(starOwner, _tokenId);\r\n        _addTokenTo(msg.sender, _tokenId);\r\n        \r\n        starOwner.transfer(starCost);\r\n\r\n        if(msg.value > starCost) { \r\n            msg.sender.transfer(msg.value - starCost);\r\n        }\r\n    }\r\n\r\n    function checkIfStarExist(string _dec, string _mag, string _cent) public view returns(bool) {\r\n        return !isDecExist[keccak256(abi.encodePacked(_dec))]\r\n            && !isMagExist[keccak256(abi.encodePacked(_mag))]\r\n            && !isCentExist[keccak256(abi.encodePacked(_cent))];\r\n    }\r\n\r\n    function mint(uint256 _tokenId) public {\r\n        _mint(msg.sender, _tokenId);\r\n    }\r\n\r\n    function tokenIdToStarInfo(uint256 _tokenId) public view returns(string, string, string, string, string){\r\n        Star memory starInfo = _tokenIdToStarInfo[_tokenId];\r\n        return (starInfo.name, starInfo.starStory, starInfo.coords.Dec, starInfo.coords.Mag, starInfo.coords.Cent);\r\n    }\r\n}",
  "sourcePath": "C:\\Users\\Administrator\\Desktop\\My Final Project\\contracts\\StarNotary.sol",
  "compiler": {
    "name": "solc",
    "version": "0.4.24+commit.e67f0147.Emscripten.clang"
  },
  "schemaVersion": "2.0.1",
  "updatedAt": "2018-12-13T10:11:31.030Z"
}